:0A0000000C9484000C9400000C9492
:10000A0000000C9400000C9400000C9400000C9466
:10001A00A0020C9400000C9400000C9400000C94B4
:10002A0000000C9400000C9400000C9400000C9446
:10003A0000000C9400000C9487020C9400000C94AD
:10004A0000000C9400000C9400000C9400000C9426
:10005A0000000C9400000C9400000C9400000C9416
:10006A0000000C9400000C9400000C9400000C9406
:10007A00D9000C9400000C9400000C9400000C941D
:10008A00000048E17A3F0000000000000000000084
:10009A000000000000000000000000000000000056
:1000AA000000000000000000000000000000000046
:1000BA000000000000000000000000000000000036
:1000CA000000252E336620252E336620252E336622
:1000DA0020252E3366200A0001002D4E414E00498C
:1000EA004E4600002D4E414E0000040004058C00CF
:1000FA000A000400C2000100B605E2000000F894FC
:10010A00EE27ECBBF1E0F5BFE5BFE0936C00F8E148
:10011A00F1BDE1BD8DE0A2E0BB27ED938A95E9F739
:10012A0080E090E1A0E0B1E0ED930197E9F7E4EF18
:10013A00F0E085919591009761F0A591B5910590B0
:10014A001590BF01F00105900D920197E1F7FB01AF
:10015A00F0CF8BBFEFEFEDBFE0E1EEBFC0E0D5E03F
:10016A000C943204E8E9E0939A00E0E0E093980006
:10017A00E7E0E093990078940895E0919B00E0729B
:10018A00E1F3E881E0939C0021960895A881B98162
:10019A00EC91E03041F0EA93F0DFE881F9813196A1
:1001AA00E883F983F3CFCFC00E94E20A1A93109131
:1001BA009C00103729F4F50131965F0110E02DC03B
:1001CA00143629F4F50131975F0110E026C019367B
:1001DA0029F4F60131966F0110E01FC0173729F490
:1001EA00F60131976F0110E018C01A3731F4A0E018
:1001FA00B5E00E94E90A10E010C0183749F4A0E0FF
:10020A00B5E0ED91FD913197FE93EE9310E005C0B4
:10021A00133719F4E1E0E0935405199185C1EAE036
:10022A00E0937000E4E0E0937400E0E0E093710092
:10023A0008951A93E4EAE0937400E0917400E07878
:10024A0029F0E0917100E87FE83009F0F6CF0E94CA
:10025A00EF0AE0917400E07829F0E0917100E87FFC
:10026A00E83109F0F6CF0E94F60AE0917400E078CE
:10027A0019F00E94FD0A09F0F8CFE4EAE09374004D
:10028A00E0917400E07829F0E0917100E87FE031B4
:10029A0009F0F6CFE1EDE0937300E4E8E09374002F
:1002AA00E0917400E07829F0E0917100E87FE03491
:1002BA0009F0F6CFE4E8E0937400E0917400E07886
:1002CA0029F0E0917100E87FE83509F0F6CF109146
:1002DA007300E4E9E0937400E12F188134C0E4EA82
:1002EA00E0937400E0917400E07829F0E0917100E5
:1002FA00E87FE83009F0F6CF0E94EF0AE091740037
:10030A00E07829F0E0917100E87FE83109F0F6CF52
:10031A000E94F60AE0917400E07819F00E94FD0A42
:10032A0009F0F8CFE881E0937300E4E8E093740001
:10033A00E0917400E07819F00E94FD0A09F0F8CF04
:10034A00E4E9E093740022960895EBE6EA93E0E884
:10035A00EA93C5DFE1E0F0E0FA93EA930E94010D27
:10036A00E8E6EA93E6E0EA93BADFEAE6EA93E1E04E
:10037A00EA93B5DFEBE1EA93E8E1EA93B0DFECE177
:10038A00EA93E8E1EA93ABDFECE6EA93E0E0EA938A
:10039A00A6DF08952697EBE3EA934BDFE883ECE3C5
:1003AA00EA9347DFE983EDE3EA9343DFEA83EEE387
:1003BA00EA933FDFEB83EFE3EA933BDFEC83E0E48E
:1003CA000E94020B70C02697E3E4EA9332DFE883C7
:1003DA00E4E4EA932EDFE983E5E4EA932ADFEA8399
:1003EA00E6E4EA9326DFEB83E7E4EA9322DFEC8391
:1003FA00E8E40E94020B57C0EC81FD810E94280BA1
:10040A00AA85BB850E94590FEA81FB810E94280BAD
:10041A00A885B9850E94590FE881F9810E94350B98
:10042A00DF01CB01E0E0F0E060E075E436C0E09186
:10043A003005F09131056091320570913305AC8138
:10044A00BD810E943A0BAA85BB850E94590FE09193
:10045A003405F09135056091360570913705AA810A
:10046A00BB810E943A0BA885B9850E94590FE09179
:10047A003805F091390560913A0570913B05A881DC
:10048A00B9810E94DC0E0E94740F0E944B0BDF019F
:10049A00CB01EFE6F2E163E871E40E94510EAE810E
:1004AA00BF810E94590F2C960895E2E0E3BFE0E075
:1004BA00E2BFE7B7E160E7BF0895EFB5EA6AEFBDCB
:1004CA00EEB5E961EEBDE0E0F0E0FDBDECBDE0E0D7
:1004DA00F0E9F7BDE6BD0895E0918B00E262E09392
:1004EA008B00E0918A00E961E0938A00E0E0E09302
:1004FA008900E0938800E0E9E0938100E0E0E0937E
:10050A00800008950E94E20AF40131964F01A2E0A8
:10051A00B5E00E94E90AA0910205B09103051E9771
:10052A0018F0E1E0E0935505E991EFBFF991E991FF
:10053A00B991A99118950A921A926A937A938A9311
:10054A009A93AA93BA93EA93FA93EFB7EA930D9B15
:10055A000DC0ECB5FDB566277727E0934805F09303
:10056A00490560934A0570934B0532C0ECB5FDB559
:10057A0066277727E0934C05F0934D0560934E0567
:10058A0070934F05A0914805B091490580914A059D
:10059A0090914B05E1E0F0E960E070E00E94BF0E47
:1005AA00A0914C05B0914D0580914E0590914F0553
:1005BA000E94BA0EE1E0F0E960E070E00E942F0FBD
:1005CA00E0935005F09351056093520570935305DB
:1005DA00E991EFBFF991E991B991A991999189911D
:1005EA00799169911990099018952C97AA8DBB8DCC
:1005FA000E94530F7F936F93FF93EF930E94500BC8
:10060A00AF91BF918F919F910E944B0BE0933C0554
:10061A00F0933D0560933E0570933F050E94500B91
:10062A007F936F93FF93EF93AE89BF890E94530F15
:10063A00AF91BF918F919F910E944B0BE887F987E9
:10064A006A877B870E94500BAE89BF890E94590F27
:10065A00AA89BB890E94530F0E94550B0E94600B06
:10066A00AC89BD89BF93AF930E94530F7F936F9359
:10067A00FF93EF93A889B9890E94530F7F936F93D1
:10068A00FF93EF930E94650B0E94550BAF91BF91A8
:10069A008F919F910E94030EAF91BF918F919F916D
:1006AA000E94B30DAF91BF910E94590FAE85BF85CD
:1006BA000E94530F0E940D0D7F936F93FF93EF9348
:1006CA000E94650BA885B9858A859B850E94510E73
:1006DA00AF91BF918F919F910E946E0BAC89BD899A
:1006EA000E94530F0E94730B0E94780B0E94B30D55
:1006FA00AC85BD850E94590F6C960895F5017496D4
:10070A00A2EAB5E00E947D0BF601A6EAB5E00E94D6
:10071A007D0BA0910005B0910105E1E00E94E10E78
:10072A00AAEAB5E00E947D0BEEE7F5E0FA93EA93B8
:10073A00E8E0F5E0FA93EA93E2E8F5E0FA93EA935F
:10074A00E2E9F5E0FA93EA93E6E8F5E0FA93EA9348
:10075A00EAE8F5E0FA93EA93EEE8F5E0FA93EA9329
:10076A00E6E9F5E0FA93EA9340DFEAE9F5E0FA937D
:10077A00EA93ECE0F5E0FA93EA93EEE9F5E0FA930E
:10078A00EA93EEEAF5E0FA93EA93E2EAF5E0FA93FD
:10079A00EA93E6EAF5E0FA93EA93EAEAF5E0FA93ED
:1007AA00EA93E2EBF5E0FA93EA931FDF08950E94D9
:1007BA00840B0E944B0B0E94970B0E94400DFBBDBD
:1007CA00EABD0E94840B0E94B30D0E94970BE0932E
:1007DA004405F093450560934605709347050E94CA
:1007EA00840B0E944B0B0E94A20B0E94400DF9BD84
:1007FA00E8BD0E94840B0E94B30D0E94A20BE093F5
:10080A004005F093410560934205709343050E94A9
:10081A00AD0B0E94CC0EE09379000E94AD0BE093E1
:10082A0078000E94B80B0E94CC0EE09385000E94CB
:10083A00B80B02C00E94C30BE09384000895E0E263
:10084A00E9BFE4E0EABF0895EFEFE7BBEFEDE2B9F5
:10085A00E0E0E3B9EFEFE8BB0895E29782E3A0E0B6
:10086A00B0E0E0E9F0E00E94960F00E010E020E03E
:10087A0030E040E050E076DCD2DC67DD16DEE4DF13
:10088A002BDE1BDEDCDFE0E0E0935005E093510550
:10089A00E0935205E0935305A0915005B09151059C
:1008AA008091520590915305A836E2E4BE07E0E034
:1008BA008E07E0E09E0784F30E94C30BE093840056
:1008CA00E8EBFBE0FA93EA930E94010DE091080538
:1008DA00F091090560910A0570910B05E0931405E2
:1008EA00F093150560931605709317050E94D40BB3
:1008FA00E0931805F093190560931A0570931B0588
:10090A00E0911005F091110560911205709113059F
:10091A00E0931C05F0931D0560931E0570931F0557
:10092A00EDB7FEB73197FA93EA931F930F93EDB79A
:10093A00FEB73197FA93EA933F932F93EDB7FEB739
:10094A003197FA93EA935F934F9324DD4F915F9126
:10095A002F913F910F911F910E94DD0B0E94DD0B99
:10096A000E94DD0B30DDF401662777270E94790D9E
:10097A00AFEAB5EA81E199E30E94030EE09320050C
:10098A00F093210560932205709323058824992406
:10099A00FE01B896FA93EA93FE01B696FA93EA93A1
:1009AA00FE01B496FA93EA931A930A933A932A9316
:1009BA005A934A9321DDFE017C96FA93EA93FE014B
:1009CA007A96FA93EA93FE0178960E94E20B0E94C5
:1009DA00E20B0E94E20BFA93EA9329DDE8A1F9A15E
:1009EA006AA17BA1ACA1BDA18EA19FA10E94E70B28
:1009FA000E94FC0BE8A1F9A16AA17BA1A8A5B9A54F
:100A0A008AA59BA50E94E70B0E94010C0E94650B18
:100A1A00AC8DBD8D8E8D9F8D0E94030EA091140505
:100A2A00B091150580911605909117050E94B30D96
:100A3A00E887F9876A877B870E94650BA88DB98D3D
:100A4A008A8D9B8D0E94030EA0911805B0911905FD
:100A5A0080911A0590911B050E94B30D0E94600BAC
:100A6A000E94650BAC89BD898E899F890E94030EFD
:100A7A00A0911C05B0911D0580911E0590911F053E
:100A8A000E94B30D0E94680FE885F9856A857B8507
:100A9A000E94060C0E94030E7F936F93FF93EF93BD
:100AAA000E940F0C0E94170C0E94030EAF91BF9177
:100ABA008F919F910E94B30DE0930805F093090569
:100ACA0060930A0570930B050E941C0C0E94060C89
:100ADA000E94030E7F936F93FF93EF930E940F0C74
:100AEA000E94210C0E94030EAF91BF918F919F919A
:100AFA000E94B30DE0930C05F0930D0560930E056B
:100B0A0070930F050E94260CE0931005F0931105CF
:100B1A006093120570931305F1DD49DEE0915405E7
:100B2A00E03009F087DEE0915505E030D1F1E6E5E5
:100B3A00F5E0FA93EA93ECECF0E0FA93EA93E091A9
:100B4A00A205F091A3056091A4057091A5050E94E4
:100B5A006D0FE091A605F091A7056091A805709127
:100B6A00A9050E946D0FE091AA05F091AB0560916D
:100B7A00AC057091AD050E946D0F0E94D40B0E94C6
:100B8A006D0F80E10E94D5096496E6E5F5E0FA93D7
:100B9A00EA93FCDAE0E0E0935505E0930205E0937E
:100BAA000305E0E0E0932005E0932105E0932205A8
:100BBA00E09323058BCEFFCF2497E0E0E883E98317
:100BCA00EA83EFE3EB831A930A93EB85FC85EF3F05
:100BDA00AFEFFA0739F40E94290CE4EEF0E00E9424
:100BEA002E0CA7C0EF3FAFE7FA0739F40E94290C91
:100BFA00E5EEF0E00E942E0C9CC0AC85AA2362F4BC
:100C0A00E985FA856B857C850E940D0D0E94320C60
:100C1A000E94370CEDE2EC93A885A73010F0E6E0CD
:100C2A00E8871885E12F1150E03039F00E943E0C18
:100C3A000E94430C0E944A0CF5CF0E944F0C0E945E
:100C4A00B30D0E94320C10E0E0E0F0E060E87FE3D0
:100C5A000E944A0C0E944F0C0E94960E88F00E9435
:100C6A003E0C0E94580C0E944A0C1F5F173238F043
:100C7A000E94290CE9EEF0E00E942E0C5AC0EACF3D
:100C8A00103029F40E94370CE0E3EC9328C0E12FDE
:100C9A001150E03021F10E943E0C0E94430C0E9448
:100CAA005F0C0E946D0F0E943A0A0E944A0C0E9431
:100CBA004F0C0E94510E0E94400D0E2F0E94370CBD
:100CCA000E94660C0E943E0C0E94350B0E94030E85
:100CDA000E946C0C0E944B0B0E94320CD8CFE88504
:100CEA00E03019F10E94370CEEE2EC93E885E1500E
:100CFA00E887EF5FD1F00E946C0C0E94580C0E94AA
:100D0A00320CE985FA856B857C850E94400D0E2F91
:100D1A000E94370C0E94660C0E946C0C0E94350BD4
:100D2A000E944B0B0E94320CE1CFAE81BF81E0E002
:100D3A00EC93198108812D9608951A930A93AA8132
:100D4A00BB8112960E944F0F309729F1AA81BB816D
:100D5A0014960E944F0F8F01309761F00230E0E045
:100D6A001E07C0F0F80131978F01AA81BB81149642
:100D7A00ED93FC93AA81BB8112960E94E90A3197EE
:100D8A00AC81A083AA81BB810E944F0FFF2312F07E
:100D9A000E94E90A06C0AA81BB81EFEFFFEFED933B
:100DAA00FC9319810881259608952497E0E0E88349
:100DBA00E983E0E8EA83EFE3EB830E948A0FEE859A
:100DCA00FF85EF3FAFEFFA0749F4E885F985FA9313
:100DDA00EA93EEEEF0E00E942E0CC4C0EF3FAFE7BC
:100DEA00FA0749F4E885F985FA93EA93EFEEF0E019
:100DFA000E942E0CB7C0AB85A73010F0E6E0EB8757
:100E0A001B85E12F1150E03029F00E94710C0E94DD
:100E1A00600BF7CFEC85FD856E857F850E94840F78
:100E2A0031F430E00E94710C0E94600B38C03B859F
:100E3A000E94730C09F010F40C9433070E94710C91
:100E4A000E94600B0E94730C40F00E94210C0E94C9
:100E5A00430C0E94010C3F5FF5CF0FC00E94730C38
:100E6A0040F40E94210C0E94580C0E94010C31503F
:100E7A00F5CF0E94710C0E94600BEC85FD856E8592
:100E8A007F850E945F0C0E94010C0E94730C38F04F
:100E9A000E94210C0E94430C0E94010C3F5F10E04B
:100EAA00EB85E11798F10E94730B0E94430C0E9494
:100EBA005F0C0E946D0F0E943A0A0E94600B0E940A
:100ECA001C0C0E94210C0E94510E0E94400D0E2FF4
:100EDA000E94780CE02FE05DEC93E02FFF27662755
:100EEA0077270E94790D0E94730B0E94030E0E94BD
:100EFA00210C0E944B0B0E94010CE12F1F5FE03076
:100F0A0079F60E94780CEEE2EC93CACF0E947F0C2D
:100F1A003197AA85A08330302CF43195A885B985FC
:100F2A00EDE203C0A885B985EBE2EC930E947F0C41
:100F3A000E947F0C3197BF01A32FEAE00E94F50EB1
:100F4A00E05DDB01EC930E947F0C3197BF01A32F78
:100F5A00EAE00E941F0FE05DDB01EC93A885B985EA
:100F6A00E0E0EC930E94910F60960895EF976197E5
:100F7A000E94880F10E0FE01E85AFF4F0190F081AD
:100F8A00E02DE887F987FE01EA5AFF4F0190F081C8
:100F9A00E02DEE83FF83AE81BF81E0E0F0E0ED93C8
:100FAA00FC93DE01A45ABF4F0E94E90A3197E491EB
:100FBA002E2FE03011F40C94CC09E12FE03039F4F3
:100FCA00253211F411E002C00E94850CDFC1E13024
:100FDA00C1F4253219F40E94850CD7C112E0E0E071
:100FEA00ED8B00E02D3211F401E0D0C12B3219F45F
:100FFA00EBE2ED8BCBC1203219F4E0E2ED8BC6C1F6
:10100A0002C0E23039F450E013E0203311F40068F2
:10101A00BDC102C0E33091F4203310F02A3308F046
:10102A0007C0AAE05A9F502DE22FE0535E0FAEC1CF
:10103A0040E02E3211F414E0A9C10FC0E43099F453
:10104A00203310F02A3308F008C00062AAE04A9F51
:10105A00402DE22FE0534E0F99C12C3619F402604D
:10106A0015E094C104C0E53011F00C94CB09E22FCD
:10107A00E33659F40E948E0C0E94950C0E948E0C45
:10108A00A481AA930E949C0C80C1E53411F0E53634
:10109A0009F404C0E63611F00C949D08FE01769618
:1010AA00EE87FF870E94A40C0E94530F0E94AB0C8C
:1010BA000E94B00CAD85AA2322F0AD89AB3249F06B
:1010CA0017C00E94B20C0E940D0D0E94AB0CEDE2FB
:1010DA00ED8B07FF05C0ED89EA930E949C0C08C0BE
:1010EA00EE85FF853196EE87FF873197AD89A0831C
:1010FA0005FF46E0263661F40E94B20C0E946D0F8D
:10110A004A93EB89FC89FA93EA930E94E1050BC0A2
:10111A000E94B20C0E946D0F4A932A93EC89FD89B2
:10112A00FA93EA9342DEFE0176960E94B70C1EC03D
:10113A00E33739F40E94B00C0E94BF0C0E94B70C2E
:10114A000EC0E037C1F40E94B00C0E94BF0CEE87BB
:10115A00FF87FA93EA930E94D70A1E2F08600F7737
:10116A00403011F0411708F001C0142F40E0E0E0D0
:10117A00EC8B30E06EC0E43611F0E93611F404600D
:10118A0002C0E537A1F4EAE0EC8B01FF08C0E0E019
:10119A00FAEC6AE97BE30E94FC0B1AE023C0E0E167
:1011AA00F7E260E070E00E94FC0B15E01BC0E83536
:1011BA0011F4086004C0E83711F00C94CA09E0E1A0
:1011CA00EC8B01FF08C0E0E0F0E060E070E10E9413
:1011DA00FC0B18E007C0E0E0F0E160E070E00E947C
:1011EA00FC0B14E0403011F00F7701C041E001FF21
:1011FA0008C00E94B00C0E94A40C14960E94530FBF
:10120A000FC002FF07C00E94B00C0E94BF0C0E94D0
:10121A00D70E06C00E94B00C0E94BF0C6627772723
:10122A00EA87FB876C877D8702FF12C0AD85AA23F8
:10123A0042F40E94B20C0E94C40E0E94AB0CEDE272
:10124A00ED8BED89E03019F01F5F4F5F01C00B7F16
:10125A00342F00FD14C0151710F4351708F00FC00D
:10126A0007FF08C002FF04C00B7F2D89115001C07F
:10127A0020E301C020E20E94850C5150ECCF1417E4
:10128A0090F4006102FF06C00E94C40C09F051509C
:10129A0011504150E0E3EA930E949C0C503009F04F
:1012AA0051504150ECCF312FEC89E030B9F4303055
:1012BA00A1F003FF06C0EE85FF852591EE87FF8723
:1012CA0005C0AE85BF852D91AE87BF870E94850C6C
:1012DA00503009F051503150EACF4DC00E94D80C1D
:1012EA000E94FA0E2E2F2A3030F003FF02C0295C2A
:1012FA0001C0295A01C0205D04FD1FC0213350F4EA
:10130A000E94170CA130E0E0BE07E0E08E07E0E0A3
:10131A009E0709F40BC0431740F4531710F000FF5F
:10132A0001C010C020E207FF08C020E3006102FFED
:10133A0004C00E94C40C09F051500E94850C503020
:10134A0009F0515031500E94D80C0E942B0F0E9474
:10135A00AB0CEC890E94170CFF27662777270E949F
:10136A00FA0E0E94FC0BE889F9896A897B890E9436
:10137A00840F09F0B3CF00FF08C0503031F051504C
:10138A00E0E2EA930E949C0CF8CF10E00ACEAE810C
:10139A00BF810E944F0F0E948F0FEF966F9608959C
:1013AA00FF92F82E26970E948A0F0E94E10C30972E
:1013BA0019F4EFEFFFEF25C0DE0116960E94B60E74
:1013CA008D010E94E10CEE83FF83E0E0E887E98764
:1013DA00DE011A960E94B60E0E944F0FFA93EA9304
:1013EA001A930A93E2EAF6E0FA93EA93FE013A962E
:1013FA00FA93EA93BBDD9F01AE81BF81E0E0EC93F3
:10140A00F9010E94910F2A96FF9008957B816A81C3
:10141A00F981E88177FB770F67FD7160972F9E57F7
:10142A0081F078F0983190F4AA27BB27882708948E
:10143A008795B795A7959A95D1F7EA23FB23682351
:10144A0005C0E8947727EE27FF2766276F777695FA
:10145A0008F4606877F9A991B99189919991EA1785
:10146A00FB076807790797FB08950E94E80C0E941A
:10147A000B0A0E94680F19F40E94260C7CC0E6F73A
:10148A000E94EC0C0E94AC0D76C024970E941C0CA2
:10149A000E94730B0E946E0B0E94260CA5E6B0ED0B
:1014AA008BEC90E40E94F20C0E94730B0E94030ED4
:1014BA007F936F93FF93EF930E94260CA0E0BDE603
:1014CA0089E291E40E94780B0E94F20CAF91BF91DD
:1014DA008F919F910E94510E289608950E94630F42
:1014EA00EDECF3E164ED7EE30E94960E20F40E9497
:1014FA00E80CCBDF40C00E94630FEAE7F2E86AE13A
:10150A0070E40E94960E09F010F40C94970A0E9457
:10151A00EC0C0E94FB0CABEDBFE089EC9FE30E9450
:10152A004B0B29C00E94EC0C0E94AC0D7F936F9369
:10153A00FF93EF930E94EC0C0E94B30DAF91BF9101
:10154A008F919F910E94FB0CABEDBFE089E49FE372
:10155A000E94B30D10C0AB81AA2322F00E94E80CAE
:10156A00BDDF09C00E94260C0E940D0D0E946D0F5E
:10157A00B5DF0E940D0D24960895E991F991A9917C
:10158A00B991CD0105900D920020E1F7FC01089573
:10159A00A991B991EE27FF276D91662311F0319633
:1015AA00FBCF0895AA27BB27E991F991059000205E
:1015BA0011F01196FBCFFD010895AA93BA93EA930D
:1015CA00FA93EFB7EA930895ED91FD913196FE9360
:1015DA00EE930895E0EDE0937300E4E8E09374007D
:1015EA000895E981E0937300E4E8E09374000895B4
:1015FA00E0917100E87FE8320895EA930E941E01A3
:10160A00ED83E0E0F881DF01E981F0E0EA2BFB2BD2
:10161A00AA85BB85ED93FC93E0E0FA81DF01EB81BB
:10162A00F0E0EA2BFB2BA885B985ED93FC93E0E06B
:10163A00FC81DF01ED81F0E0EA2BFB2BAE81BF815B
:10164A00ED93FC9308950E94D70E0E94790DDF0155
:10165A00CB01E0E0F0E060E075E40E94510E0895ED
:10166A000E94D70E0E94790D08950E94DC0E0E94F6
:10167A00740F0E94770F0E94AC0DDF01CB01EFE6D9
:10168A00F2E163E871E40E94510E08950E94770F17
:10169A000E94AC0D0895A88DB98D0E94530F08952C
:1016AA00A0913C05B0913D0580913E0590913F0582
:1016BA000E94030E0895EC83FD836E837F83089551
:1016CA00E0912005F0912105609122057091230592
:1016DA0008950E94030E0E94680F0895AC81BD818F
:1016EA008E819F8108950E94B30D0E94630F089511
:1016FA00662777270E94790D0E94590F0895E09175
:10170A009605F09197056091980570919905A091B9
:10171A005005B091510580915205909153050E9450
:10172A00740F0895A091B205B091B3058091B405E4
:10173A009091B5050E94B30D0895A091B205B0919C
:10174A00B3058091B4059091B5050E94AC0D08953A
:10175A00E0914005F0914105609142057091430581
:10176A000E94420D0895E0914405F091450560916B
:10177A004605709147050E94420D0895E4E9FEE38B
:10178A00FBBDEABDF9BDE8BDEEE3E0937900E4E90B
:10179A00E0937800EEE3E0938500E4E90895E091B0
:1017AA000C05F0910D0560910E0570910F050895D5
:1017BA00FE01F096FA93EA930895FA93EA93EEA952
:1017CA00FFA908950E94510E0E946D0F0E94B00A4F
:1017DA00A0E0B0E084E393E40E94030EDF01CB01B2
:1017EA00EBEDFFE069E470E40E94510E0895E88B86
:1017FA00F98B6A8B7B8B0895EC87FD876E877F87D1
:10180A000895A0910405B09105058091060590916F
:10181A0007050895F6DFE0E0F0E060E87FE30E9464
:10182A00AC0D0895A889B9898A899B890895EC81A4
:10183A00FD816E817F810895AC85BD858E859F85EA
:10184A0008950E945E0F0895EE81FF81FA93EA934C
:10185A000895FA93EA930C94C20AE987FA876B8788
:10186A007C870895AE81BF811196AE83BF8311979D
:10187A000895AA81BB818C819D810895EDECFCECD1
:10188A006CEC7DE30E94030E0895EA83FB836C836C
:10189A007D830895EA81FB816C817D81A985BA8562
:1018AA008B859C850895E0E0F0E060E271E40E9497
:1018BA00030E0895A0E0B0E080E09FE30E94B30D1C
:1018CA000895E02FE05DEC93E02FF0E00895A985FC
:1018DA00BA858B859C85089501DFE5CFA8DFACDF4B
:1018EA000E94960E0895A885B9851196A887B9878A
:1018FA0011970895E885F9853196E887F98708955B
:10190A002A93EF81F885FA93EA93EB85FC8509958A
:10191A000895FE01E65AFF4F0190F081E02D0895E7
:10192A003497DE01A65ABF4FED93FC930895EF81D9
:10193A00F885FA93EA93EB85FC8509950895DE010B
:10194A00A65ABF4F0D90BC91A02D0895EA87FB8738
:10195A006C877D870895DDDFE3CFEA85FB856C859B
:10196A007D850895EE87FF87FA93EA930E94CD0A50
:10197A001E2F0895E4DF14960E944F0F08950B7FDF
:10198A00ED89EA93FE01E95AFF4F0190F081E02DBB
:10199A00FA93EA93FE01E55AFF4F0190F081E02D98
:1019AA00099550300895E889F9896A897B89AA8559
:1019BA00BB858C859D850895DE011C960E94B60E16
:1019CA000E944F0F08953DDF0E946D0F089539DF81
:1019DA00A0E0B0E080E89FE308950E94030EAEE421
:1019EA00BFE88AE491E40E94B30D08950E94510E63
:1019FA000E946D0F0C944A0AE991F991309639F0D8
:101A0A0086E69EE00197F1F7A8953197C9F7089500
:101A1A0030976040704009F070580895552342F499
:101A2A00503811F4E0FF04C03196691F791F6BF03A
:101A3A0050E8572711F45F93CFC05F3F31F0660F2C
:101A4A00000C57956795752F08955F9300200AF04B
:101A5A00CFC0C8C050E8192E1522880F991F9527A4
:101A6A00550F879550E8072E0522660F771F7527B1
:101A7A00550F67950895689401C0E8945F93F2DF63
:101A8A00703818F07F3F08F4A7C056E1571BAAF434
:101A9A00519558300EF4593030F0EFEFFFEF6FEFF9
:101AAA007FE777F91AC077275523B9F0EE0FFF1FA2
:101ABA00661F771F5A95D1F710C07727583028F03C
:101ACA00EF2FF62F672F5850F9CF552331F076951F
:101ADA006795F795E7955A95D1F700200AF44FD103
:101AEA005F910895689401C0E8943097604070400F
:101AFA00B1F0002426F0772312F4009440D1172E77
:101B0A007EE1112032F07A95EE0FFF1F661F111C3D
:101B1A00F9CFEF2FF62F612D5F938ADF5F9108953A
:101B2A004F93AF01FD01DA01AB01BC01CA01402D9F
:101B3A00012C142E4F910895EA0FFB1F681F089578
:101B4A00E095F0956095EF5FFF4F6F4F08955F93B3
:101B5A0081DF903871F150E8152604C05F937ADF6F
:101B6A00903839F1703821F1572F591B2BF112F4A3
:101B7A00D7DFFACF583118F0AA27BB278827583061
:101B8A0028F0AB2FB82F88275850F9CF552329F0C2
:101B9A008695B795A7955A95D9F7502D512572F084
:101BAA00CBDF38F46795F795E795739513F420C062
:101BBA00B7DF3EDF5F910895D8F7FBCFEA1BFB0B37
:101BCA00680B51F010F40094BBDF662392F3EE0F1A
:101BDA00FF1F661F7A95CBF7EE27FF276627772721
:101BEA005F910895EFEFFFEF6FE77FEF5F91089541
:101BFA00EFEFFFEF6FE77FE75F9108955F932ADFCB
:101C0A00703851F3903841F301240894791F23F472
:101C1A001CF300203AF3ECCF0F921F932F933F93BC
:101C2A004F93112722279927689FA0018F9F302D54
:101C3A00410D591F6B9F300D411D591F8E9F27D093
:101C4A00BF9F25D06A9F23D0BE9F1DD0AF9F1BD0B8
:101C5A00AE9F110D291F391F491F591FE32FF42F5A
:101C6A00652F522F4F913F912F911F910F9066230D
:101C7A002AF0550FEE1FFF1F661F02C073954BF225
:101C8A00CDDE5F910895100D211D391F02C0200D70
:101C9A00311D491F591F08955F93DCDE703821F406
:101CAA0011200AF49FCFA4CF903809F495CF0124CC
:101CBA000894970B1BF4D4F30020F3CF792F1F93CA
:101CCA002F933F934F931124112722273327442719
:101CDA00552790E2AE17BF078607410730F0AE1BC3
:101CEA00BF0B860B410B089401C08894551F221F15
:101CFA00331F111CAA1FBB1F881F441F9A9551F737
:101D0A00F901612D4F913F912F911F91662332F076
:101D1A00550FEE1FFF1F661F7A9543F27FDE5F9114
:101D2A00089599239AF0772342F0971748F029F4F7
:101D3A00AE17BF07860720F031F09894889408956B
:101D4A009894089408951894889408957723C2F76C
:101D5A00971798F3A9F7EA17FB07680788F399F327
:101D6A00ECCF0024AF0DB01D0895AE0FBF1F861F24
:101D7A00971F0895EA1BFB0B680B790B0895F095E2
:101D8A0060957095E195FF4F6F4F7F4F0895EF2F44
:101D9A00FF27E7FDFFEF0895FE2FFF0FFF0B6F2FC1
:101DAA007F2F08956F2F660F660B762F08958B2F5E
:101DBA00880F880B982F08956E2F6A9FF0016B9FEA
:101DCA00F00D0895002498E0AA0F001C0E1A10F4D2
:101DDA000E0E01C0A1609A95B9F7EA2FA02D0895B9
:101DEA004DD0F0DF0EF4E19508953F934F935F9342
:101DFA00002411244427552730E2AA0FBB1F881F4D
:101E0A00991F001C111C441F551F0E1A1F0A460B4E
:101E1A00570B28F40E0E1F1E461F571F01C0A16044
:101E2A003A9559F7FD01BC01D001CA015F914F9162
:101E3A003F910895E894A7FF02C0A1956894E7FD31
:101E4A00E195C0DFEA2F0EF4E1950895CEDFFD019A
:101E5A00BC010895E89497FF09C0A095B0958095B4
:101E6A009095AF5FBF4F8F4F9F4F689477FD87DF85
:101E7A00BCDFFD01BC010EF482DF0895E894E7FFA0
:101E8A0002C0E1956894A7FF04C0A19500F80394E5
:101E9A0000FA0895ED91FC9111970895ED91FD9145
:101EAA006D917C9113970895ED93FD936D937C93B7
:101EBA000895E881F9816A817B810895A881B981B1
:101ECA008A819B810895E883F9836A837B830895D5
:101EDA007A936A93FA93EA930895689401C0E8940E
:101EEA0001D003DE182E862F612D192E972F712D02
:101EFA001B2EBF2FF12D1A2EAE2FE12D08953097EC
:101F0A006040704008955A934A933A932A931A93D9
:101F1A000A9308955D814C813B812A811981088148
:101F2A000895AC0FBD1F05900D928A95E1F70895AB
:00000001FF
